:020000040100F9
:1060000000000120416000010000000000000000CD
:106010000000000000000000000000000000000080
:106020000000000000000000000000000000000070
:1060300000000000000000000000000051610001AD
:1060400080B582B000AF184B7B60184B3B607A681C
:106050003B689A420ED009E07B681A683B681A6078
:106060007B6804337B603B6804333B603B68104AC9
:106070009342F1D30F4B3B6005E03B6800221A606E
:106080003B6804333B603B680B4A9342F5D30B4BB0
:106090001A680A490A4B13430B6000F013F800BF5B
:1060A0000837BD4680BD00BF8062000100000020AF
:1060B00000000020000000200000002000F001404F
:1060C0005A390F2080B500AF1B4B1C4A5A601A4B3F
:1060D00007221A601A4800F04FF800BF184BDB6F18
:1060E00003F00103002BF9D1154B12221A60144B57
:1060F0005B6903F00103002BF9D0114B1B68732B74
:106100000BD100BF0E4BDB6F03F00103002BF9D165
:106110000B4B0B4A1B68136003E0094B00221A600B
:10612000E5E7084B084A9A60BFF34F8F074B1B689F
:1061300098470023184680BD10E000E0007C9200E4
:106140000070014000ED00E000500001045000012B
:1061500080B400AF00BF074BDB6F03F00103002BDF
:10616000F9D1044B10221A6000BFBD465DF8047BD4
:10617000704700BF0070014080B485B000AF786008
:10618000394B5B68384A43F4801353607B68374A65
:10619000934211D1344B5B68334A43F0010353609F
:1061A000314BDB68304A43F00103D360304B1B684E
:1061B0002F4A23F00F0313607B682E4A934211D1BC
:1061C000294B5B68284A43F004035360264BDB6885
:1061D000254A43F00403D360254BDB68244A23F0AF
:1061E0007063D3607B68244A934211D11E4B5B6875
:1061F0001D4A43F0020353601B4BDB681A4A43F00D
:106200000203D3601A4B5B68194A43F07063536012
:106210007B680622DA677B68DB6843F080027B6874
:10622000DA60114B1B6B4FF47A7202FB03F3FB60D5
:10623000FB681B0903F56143104AA2FB03231B0CF7
:10624000BB60BB68DAB27B681A60BB681B0ADAB253
:106250007B685A607B680322DA6000BF1437BD4652
:106260005DF8047B704700BF00F001400060014012
:1062700080D101400040044000700140C5B3A291AC
:040000050100600096
:00000001FF
