:020000040100F9
:105000000000012001540001000000000000000029
:105010000000000000000000000000000000000090
:105020000000000000000000000000000000000080
:105030000000000000000000000000000955000111
:10504000515500015F5500016D5500017B55000170
:105050008955000197550001A5550001B355000180
:10506000C1550001CF550001DD550001EB55000190
:10507000F95500010756000115560001235600019D
:10508000315600013F5600014D5600015B560001AC
:1050900069560001775600018556000193560001BC
:1050A000A1560001AF560001BD560001CB560001CC
:1050B00000000000D95600010000000000000000C0
:1050C000E7560001F55600010000000003570001FB
:1050D000115700011F5700012D5700013B570001D8
:1050E0004957000100000000575700010000000070
:1050F0000000000000000000655700017357000128
:1051000000000000815700018F5700019D570001EA
:10511000000000000000000000000000000000008F
:10512000000000000000000000000000000000007F
:10513000000000000000000000000000000000006F
:10514000000000000000000000000000000000005F
:1054000080B582B000AF184B7B60184B3B607A6868
:105410003B689A420ED009E07B681A683B681A60C4
:105420007B6804337B603B6804333B603B68104A15
:105430009342F1D30F4B3B6005E03B6800221A60BA
:105440003B6804333B603B680B4A9342F5D30B4BFC
:105450001A680A490A4B13430B6000F01BF800BF9F
:105460000837BD4680BD00BFB458000100000020D1
:1054700004000020040000200400002000F001408F
:105480005A390F2080B400AF00BFBD465DF8047BE1
:105490007047000080B500AF174B184A5A60164B92
:1054A00007221A60164800F081F900BF144BDB6F29
:1054B00003F00103002BF9D1114B12221A60104B9B
:1054C0005B6903F00103002BF9D00D4B1B68732BB4
:1054D0000DD100BF0A4BDB6F03F00103002BF9D1A4
:1054E000074B074A1B681360064B1B689847044B21
:1054F00000221A60E3E700BF10E000E0007C9200A9
:10550000007001400060000180B400AF0E4B1B78BA
:10551000002B06D00C4B1B78013BDAB20A4B1A70F9
:105520000CE000BF094BDB6F03F00103002BF9D146
:10553000064B10221A60044B14221A7000BFBD469D
:105540005DF8047B704700BF000000200070014040
:1055500080B400AF00BFBD465DF8047B704780B4E7
:1055600000AF00BFBD465DF8047B704780B400AF5C
:1055700000BFBD465DF8047B704780B400AF00BF3C
:10558000BD465DF8047B704780B400AF00BFBD46E8
:105590005DF8047B704780B400AF00BFBD465DF886
:1055A000047B704780B400AF00BFBD465DF8047B4C
:1055B000704780B400AF00BFBD465DF8047B704704
:1055C00080B400AF00BFBD465DF8047B704780B477
:1055D00000AF00BFBD465DF8047B704780B400AFEC
:1055E00000BFBD465DF8047B704780B400AF00BFCC
:1055F000BD465DF8047B704780B400AF00BFBD4678
:105600005DF8047B704780B400AF00BFBD465DF815
:10561000047B704780B400AF00BFBD465DF8047BDB
:10562000704780B400AF00BFBD465DF8047B704793
:1056300080B400AF00BFBD465DF8047B704780B406
:1056400000AF00BFBD465DF8047B704780B400AF7B
:1056500000BFBD465DF8047B704780B400AF00BF5B
:10566000BD465DF8047B704780B400AF00BFBD4607
:105670005DF8047B704780B400AF00BFBD465DF8A5
:10568000047B704780B400AF00BFBD465DF8047B6B
:10569000704780B400AF00BFBD465DF8047B704723
:1056A00080B400AF00BFBD465DF8047B704780B496
:1056B00000AF00BFBD465DF8047B704780B400AF0B
:1056C00000BFBD465DF8047B704780B400AF00BFEB
:1056D000BD465DF8047B704780B400AF00BFBD4697
:1056E0005DF8047B704780B400AF00BFBD465DF835
:1056F000047B704780B400AF00BFBD465DF8047BFB
:10570000704780B400AF00BFBD465DF8047B7047B2
:1057100080B400AF00BFBD465DF8047B704780B425
:1057200000AF00BFBD465DF8047B704780B400AF9A
:1057300000BFBD465DF8047B704780B400AF00BF7A
:10574000BD465DF8047B704780B400AF00BFBD4626
:105750005DF8047B704780B400AF00BFBD465DF8C4
:10576000047B704780B400AF00BFBD465DF8047B8A
:10577000704780B400AF00BFBD465DF8047B704742
:1057800080B400AF00BFBD465DF8047B704780B4B5
:1057900000AF00BFBD465DF8047B704780B400AF2A
:1057A00000BFBD465DF8047B7047000080B485B043
:1057B00000AF7860394B5B68384A43F4801353601C
:1057C0007B68374A934211D1344B5B68334A43F0CC
:1057D00001035360314BDB68304A43F00103D3606F
:1057E000304B1B682F4A23F00F0313607B682E4A4F
:1057F000934211D1294B5B68284A43F0040353605C
:10580000264BDB68254A43F00403D360254BDB6855
:10581000244A23F07063D3607B68244A934211D1F9
:105820001E4B5B681D4A43F0020353601B4BDB6851
:105830001A4A43F00203D3601A4B5B68194A43F0DB
:10584000706353607B680622DA677B68DB6843F02D
:1058500080027B68DA60114B1B6B4FF47A7202FB9B
:1058600003F3FB60FB681B0903F56143104AA2FBCD
:1058700003231B0CBB60BB68DAB27B681A60BB6891
:105880001B0ADAB27B685A607B680322DA6000BFC9
:105890001437BD465DF8047B704700BF00F001403F
:1058A0000060014080D10140004004400070014090
:0458B000C5B3A29149
:0458B40014000000DC
:0400000501005000A6
:00000001FF
