:020000040100F9
:105000000000012001540001000000000000000029
:105010000000000000000000000000000000000090
:105020000000000000000000000000000000000080
:10503000000000000000000000000000F954000122
:10504000115600011F5600012D5600013B5600016C
:10505000495600015756000165560001735600017C
:10506000815600014155000175550001A955000107
:10507000DD5500018F5600019D560001AB56000121
:10508000B9560001C7560001D5560001E35600018C
:10509000F1560001FF5600010D5700011B5700019A
:1050A00029570001375700014557000153570001A8
:1050B0000000000061570001000000000000000037
:1050C0006F5700017D570001000000008B57000161
:1050D00099570001A7570001B5570001C3570001B8
:1050E000D157000100000000DF5700010000000060
:1050F0000000000000000000ED570001FB57000118
:10510000000000000958000117580001255800014F
:10511000000000000000000000000000000000008F
:10512000000000000000000000000000000000007F
:10513000000000000000000000000000000000006F
:10514000000000000000000000000000000000005F
:1054000080B582B000AF184B7B60184B3B607A6868
:105410003B689A420ED009E07B681A683B681A60C4
:105420007B6804337B603B6804333B603B68104A15
:105430009342F1D30F4B3B6005E03B6800221A60BA
:105440003B6804333B603B680B4A9342F5D30B4BFC
:105450001A680A490A4B13430B6000F01BF800BF9F
:105460000837BD4680BD00BF705900010000002014
:1054700004000020040000200400002000F001408F
:105480005A390F2080B400AF00BFBD465DF8047BE1
:105490007047000080B500AF154800F0E5F900F056
:1054A000C9F900BF124BDB6F03F00103002BF9D1E8
:1054B0000F4B12221A600E4B5B6903F00103002BA5
:1054C000F9D00B4B1B68732B0DD100BF084BDB6F62
:1054D00003F00103002BF9D1054B054A1B6813604B
:1054E000044B1B689847024B00221A60E3E700BF99
:1054F000007001400060000180B400AF0E4B1B78CB
:10550000002B06D00C4B1B78013BDAB20A4B1A7009
:105510000CE000BF094BDB6F03F00103002BF9D156
:10552000064B10221A60044B14221A7000BFBD46AD
:105530005DF8047B704700BF000000200070014050
:1055400080B400AF094BDB68002B09D100BF084BCA
:10555000DB6F03F00103002BF9D1054B50221A60D9
:1055600000BFBD465DF8047B704700BF00300140BE
:105570000070014080B400AF094BDB68002B0AD1FA
:1055800000BF084BDB6F03F00103002BF9D1054B83
:1055900051221A60FEE700BFBD465DF8047B7047EC
:1055A000143001400070014080B400AF094BDB684B
:1055B000002B0AD100BF084BDB6F03F00103002B67
:1055C000F9D1054B52221A60FEE700BFBD465DF8D7
:1055D000047B7047283001400070014080B400AF68
:1055E000094BDB68002B09D100BF084BDB6F03F0D0
:1055F0000103002BF9D1054B53221A6000BFBD46B1
:105600005DF8047B704700BF3C30014000700140F2
:1056100080B400AF00BFBD465DF8047B704780B426
:1056200000AF00BFBD465DF8047B704780B400AF9B
:1056300000BFBD465DF8047B704780B400AF00BF7B
:10564000BD465DF8047B704780B400AF00BFBD4627
:105650005DF8047B704780B400AF00BFBD465DF8C5
:10566000047B704780B400AF00BFBD465DF8047B8B
:10567000704780B400AF00BFBD465DF8047B704743
:1056800080B400AF00BFBD465DF8047B704780B4B6
:1056900000AF00BFBD465DF8047B704780B400AF2B
:1056A00000BFBD465DF8047B704780B400AF00BF0B
:1056B000BD465DF8047B704780B400AF00BFBD46B7
:1056C0005DF8047B704780B400AF00BFBD465DF855
:1056D000047B704780B400AF00BFBD465DF8047B1B
:1056E000704780B400AF00BFBD465DF8047B7047D3
:1056F00080B400AF00BFBD465DF8047B704780B446
:1057000000AF00BFBD465DF8047B704780B400AFBA
:1057100000BFBD465DF8047B704780B400AF00BF9A
:10572000BD465DF8047B704780B400AF00BFBD4646
:105730005DF8047B704780B400AF00BFBD465DF8E4
:10574000047B704780B400AF00BFBD465DF8047BAA
:10575000704780B400AF00BFBD465DF8047B704762
:1057600080B400AF00BFBD465DF8047B704780B4D5
:1057700000AF00BFBD465DF8047B704780B400AF4A
:1057800000BFBD465DF8047B704780B400AF00BF2A
:10579000BD465DF8047B704780B400AF00BFBD46D6
:1057A0005DF8047B704780B400AF00BFBD465DF874
:1057B000047B704780B400AF00BFBD465DF8047B3A
:1057C000704780B400AF00BFBD465DF8047B7047F2
:1057D00080B400AF00BFBD465DF8047B704780B465
:1057E00000AF00BFBD465DF8047B704780B400AFDA
:1057F00000BFBD465DF8047B704780B400AF00BFBA
:10580000BD465DF8047B704780B400AF00BFBD4665
:105810005DF8047B704780B400AF00BFBD465DF803
:10582000047B704780B400AF00BFBD465DF8047BC9
:105830007047000080B400AF0A4B002283F80923B0
:10584000084B402283F80A23064B602283F80B237F
:10585000044B802283F80C2300BFBD465DF8047B17
:10586000704700BF00E100E080B485B000AF786011
:10587000394B5B68384A43F4801353607B68374A7E
:10588000934211D1344B5B68334A43F001035360B8
:10589000314BDB68304A43F00103D360304B1B6867
:1058A0002F4A23F00F0313607B682E4A934211D1D5
:1058B000294B5B68284A43F004035360264BDB689E
:1058C000254A43F00403D360254BDB68244A23F0C8
:1058D0007063D3607B68244A934211D11E4B5B688E
:1058E0001D4A43F0020353601B4BDB681A4A43F026
:1058F0000203D3601A4B5B68194A43F0706353602C
:105900007B680622DA677B68DB6843F080027B688D
:10591000DA60114B1B6B4FF47A7202FB03F3FB60EE
:10592000FB681B0903F56143104AA2FB03231B0C10
:10593000BB60BB68DAB27B681A60BB681B0ADAB26C
:105940007B685A607B680322DA6000BF1437BD466B
:105950005DF8047B704700BF00F00140006001402B
:1059600080D101400040044000700140C5B3A291C5
:04597000140000001F
:0400000501005000A6
:00000001FF
