:020000040100F9
:1050000000000120415000010000000000000000ED
:105010000000000000000000000000000000000090
:105020000000000000000000000000000000000080
:105030000000000000000000000000000000000070
:1050400080B582B000AF184B7B60184B3B607A682C
:105050003B689A420ED009E07B681A683B681A6088
:105060007B6804337B603B6804333B603B68104AD9
:105070009342F1D30F4B3B6005E03B6800221A607E
:105080003B6804333B603B680B4A9342F5D30B4BC0
:105090001A680A490A4B13430B6000F013F800BF6B
:1050A0000837BD4680BD00BF2C5200010000002023
:1050B00000000020000000200000002000F001405F
:1050C0005A390F2080B500AF124800F02BF8114B71
:1050D0005B6903F00103002BF9D00E4B1B68632BB7
:1050E0000BD000BF0B4BDB6F03F00103002BF9D19A
:1050F000084B084A1B681360E9E700BF064B074AE4
:105100009A60BFF34F8F064B1B68984700231846E1
:1051100080BD00BF0070014000ED00E000600001B4
:105120000460000180B485B000AF7860394B5B68E3
:10513000384A43F4801353607B68374A934211D155
:10514000344B5B68334A43F001035360314BDB68F7
:10515000304A43F00103D360304B1B682F4A23F0E1
:105160000F0313607B682E4A934211D1294B5B6871
:10517000284A43F004035360264BDB68254A43F07A
:105180000403D360254BDB68244A23F07063D360AB
:105190007B68244A934211D11E4B5B681D4A43F041
:1051A000020353601B4BDB681A4A43F00203D360CF
:1051B0001A4B5B68194A43F0706353607B680622A0
:1051C000DA677B68DB6843F080027B68DA60114B4A
:1051D0001B6B4FF47A7202FB03F3FB60FB681B0945
:1051E00003F56143104AA2FB03231B0CBB60BB68A1
:1051F000DAB27B681A60BB681B0ADAB27B685A6055
:105200007B680322DA6000BF1437BD465DF8047B7B
:10521000704700BF00F001400060014080D10140B4
:0C5220000040044000700140C5B3A291A2
:0400000501005000A6
:00000001FF
