:020000040100F9
:10100000000001204110000100000000000000006D
:1010100000000000000000000000000000000000D0
:1010200000000000000000000000000000000000C0
:1010300000000000000000000000000000000000B0
:1010400080B582B000AF184B7B60184B3B607A686C
:101050003B689A420ED009E07B681A683B681A60C8
:101060007B6804337B603B6804333B603B68104A19
:101070009342F1D30F4B3B6005E03B6800221A60BE
:101080003B6804333B603B680B4A9342F5D30B4B00
:101090001A680A490A4B13430B6000F027F800BF97
:1010A0000837BD4680BD00BF6C170001000000205E
:1010B00004000020040000200600002000F0014091
:1010C0005A390F2080B400AF064B5B68054A43F4E1
:1010D00000135360044B06229A6000BFBD465DF8C2
:1010E000047B704700F001400030014080B5A4B09F
:1010F00000AF72B671B6FFF7E5FF4E4800F0B2FAE6
:1011000000F01AFA4C4800F0ADFA4C4BC7F88C309E
:10111000494B5B6903F00103002B78D0464B1B68F9
:10112000112B1ED1444B444A1B681360434BC7F834
:10113000883010E000BF404BDB6F03F00103002B51
:10114000F9D1D7F888301A783B4B1A60D7F8883035
:101150000133C7F88830D7F88820D7F88C309A4206
:10116000E8D3354B1B68732B0BD100BF324BDB6FC1
:1011700003F00103002BF9D12F4B2F4A1B6813609A
:1011800049E02D4B1B68012B41D100BF2A4BDB6F7F
:1011900003F00103002BF9D1274B274A1B6813608A
:1011A0000023C7F884300DE0D7F8843003F580536E
:1011B00005331B03184600F0F5F9D7F884300133E6
:1011C000C7F88430D7F884301F2BEDDD3B46184636
:1011D00000F0F0F80346042B0ED0062B19D13B4645
:1011E0000333D7F88C10184600F028FAD7F88C3063
:1011F0008033C7F88C300DE0D7F88C3023F47F6350
:1012000023F00F0303F58053C7F88C3002E000BFD2
:101210007EE700BF7CE762B661B6094B074A9A6079
:10122000BFF34F8F074B1B68984700231846903732
:10123000BD4680BD006001400070014000500001CB
:1012400000ED00E00450000180B483B000AF03461D
:10125000FB71044AFB79136000BF0C37BD465DF893
:10126000047B70470060014080B485B000AF7860B7
:101270000023FB73244B1B6B40F6B83202FB03F3D5
:10128000224A64331360214B9B68204A43F00103D8
:1012900093601DE01E4B5B6903F00103002B0AD035
:1012A0001B4B1968FB7B7A681344CAB21A70FB7B2C
:1012B0000133FB730CE0FB7B012B05D17B681B78B2
:1012C000042B01D1042318E0104B5B68642B03D975
:1012D000FB7B832BDED900E000BF0C4B06229A601B
:1012E000FB7B842B03D10023FB73062305E0FB7BF0
:1012F000002B01D0152300E0012318461437BD460A
:101300005DF8047B704700BF00F0014000300140F1
:101310000060014080B485B000AF786039607B68C0
:101320001B78012B07D03B681B78013BDAB23B6886
:101330001A70152337E07B685A787B689B78534096
:10134000DBB2FF2B05D17B685A783B681B789A4249
:1013500007D03B681B78013BDAB23B681A70152353
:1013600021E00023FB730023BB600AE07A68BB68BE
:10137000134403331A78FB7B1344FB73BB680133BC
:10138000BB60BB687F2BF1DD7B6893F88330FA7B11
:101390009A4207D03B681B78013BDAB23B681A706F
:1013A000152300E0062318461437BD465DF8047B7C
:1013B0007047000080B582B000AF78605A4B1B7850
:1013C000062B17D0152B19D1584B1B780133DAB2E5
:1013D000564B1A70554B1B78032B1BD900BF544B2F
:1013E000DB6F03F00103002BF9D11820FFF72CFF6E
:1013F000182395E04D4B01221A700CE000BF4C4BB6
:10140000DB6F03F00103002BF9D11820FFF71CFF5D
:10141000182385E000BF00BF454BDB6F03F00103DD
:10142000002BF9D1404B1B781846FFF70DFF7B6866
:101430001846FFF719FF0346013B142B65D801A29C
:1014400052F823F0C51400010B1500010B15000123
:10145000DB1400010B150001991400010B150001AC
:101460000B1500010B1500010B1500010B150001F8
:101470000B1500010B1500010B1500010B150001E8
:101480000B1500010B1500010B1500010B150001D8
:101490000B150001BB140001264B1B780133DAB297
:1014A000244B1A7023497868FFF734FF03461A4625
:1014B0001D4B1A701C4B1B7832E01B4B15221A7007
:1014C00015232DE0194B00221A701A4B00221A70B6
:1014D000154B15221A70012322E0134B15221A70A6
:1014E000124B00221A70134B00221A700E4B152259
:1014F0001A7000BF0E4BDB6F03F00103002BF9D114
:101500000620FFF7A1FE04230AE000BF084BDB6FB3
:1015100003F00103002BF9D11820FFF795FE1823E3
:1015200018460837BD4680BD00000020040000209A
:10153000006001400500002080B400AF174B9B689D
:10154000164A43F000539360144B5B69134A23F02F
:1015500000535361114B1B69104A43F00053136150
:101560000E4B5B690D4A43F0005353610C4B5B69B2
:1015700023F4814323F07F03094A43F4804343F07B
:101580006B035361064B5B699BB2054A43F440030E
:10159000536100BFBD465DF8047B704700F0014019
:1015A00000200A4080B582B000AF7860064800F0A5
:1015B0000DF848F21C031B68796800209847034621
:1015C00018460837BD4680BD0000084080B483B08F
:1015D00000AF786000BF7B681B6A03F00053002BEC
:1015E000F9D17B684FF080425A627B685B6A43F0B6
:1015F00000427B685A6200BF7B685B6A002BFBDBA2
:1016000000BF00BF0C37BD465DF8047B704790B546
:1016100087B002AFF860B9607A6048F224031B68B3
:101620001C467B680093BB68FA6800210020A04735
:10163000034618461437BD4690BD000080B582B001
:1016400000AF786039600648FFF7C0FF7A688021F4
:101650003868FFF7DCFF3B6818460837BD4680BD99
:101660000000084080B485B000AF7860394B5B68FB
:10167000384A43F4801353607B68374A934211D150
:10168000344B5B68334A43F001035360314BDB68F2
:10169000304A43F00103D360304B1B682F4A23F0DC
:1016A0000F0313607B682E4A934211D1294B5B686C
:1016B000284A43F004035360264BDB68254A43F075
:1016C0000403D360254BDB68244A23F07063D360A6
:1016D0007B68244A934211D11E4B5B681D4A43F03C
:1016E000020353601B4BDB681A4A43F00203D360CA
:1016F0001A4B5B68194A43F0706353607B6806229B
:10170000DA677B68DB6843F080027B68DA60114B44
:101710001B6B4FF47A7202FB03F3FB60FB681B093F
:1017200003F56143104AA2FB03231B0CBB60BB689B
:10173000DAB27B681A60BB681B0ADAB27B685A604F
:101740007B680322DA6000BF1437BD465DF8047B76
:10175000704700BF00F001400060014080D10140AF
:0C1760000040044000700140C5B3A2919D
:04176C001500000064
:0400000501001000E6
:00000001FF
